{"abi":[{"type":"constructor","inputs":[],"stateMutability":"nonpayable"},{"type":"function","name":"batches","inputs":[{"name":"","type":"uint256","internalType":"uint256"}],"outputs":[{"name":"batchId","type":"string","internalType":"string"},{"name":"manufacturer","type":"string","internalType":"string"},{"name":"expiryDate","type":"uint256","internalType":"uint256"},{"name":"ipfsHash","type":"string","internalType":"string"},{"name":"isRecalled","type":"bool","internalType":"bool"}],"stateMutability":"view"},{"type":"function","name":"getBatchDetails","inputs":[{"name":"tokenId","type":"uint256","internalType":"uint256"}],"outputs":[{"name":"batchId","type":"string","internalType":"string"},{"name":"manufacturer","type":"string","internalType":"string"},{"name":"expiryDate","type":"uint256","internalType":"uint256"},{"name":"ipfsHash","type":"string","internalType":"string"},{"name":"isRecalled","type":"bool","internalType":"bool"}],"stateMutability":"view"},{"type":"function","name":"isValid","inputs":[{"name":"tokenId","type":"uint256","internalType":"uint256"}],"outputs":[{"name":"","type":"bool","internalType":"bool"}],"stateMutability":"view"},{"type":"function","name":"mintBatch","inputs":[{"name":"_batchId","type":"string","internalType":"string"},{"name":"_manufacturer","type":"string","internalType":"string"},{"name":"_expiryDate","type":"uint256","internalType":"uint256"},{"name":"_ipfsHash","type":"string","internalType":"string"}],"outputs":[{"name":"","type":"uint256","internalType":"uint256"}],"stateMutability":"nonpayable"},{"type":"function","name":"owner","inputs":[],"outputs":[{"name":"","type":"address","internalType":"address"}],"stateMutability":"view"},{"type":"function","name":"recallBatch","inputs":[{"name":"tokenId","type":"uint256","internalType":"uint256"}],"outputs":[],"stateMutability":"nonpayable"},{"type":"function","name":"transferOwnership","inputs":[{"name":"newOwner","type":"address","internalType":"address"}],"outputs":[],"stateMutability":"nonpayable"},{"type":"event","name":"BatchMinted","inputs":[{"name":"tokenId","type":"uint256","indexed":true,"internalType":"uint256"},{"name":"batchId","type":"string","indexed":false,"internalType":"string"},{"name":"manufacturer","type":"string","indexed":false,"internalType":"string"}],"anonymous":false},{"type":"event","name":"BatchRecalled","inputs":[{"name":"tokenId","type":"uint256","indexed":true,"internalType":"uint256"}],"anonymous":false},{"type":"event","name":"OwnershipTransferred","inputs":[{"name":"previousOwner","type":"address","indexed":true,"internalType":"address"},{"name":"newOwner","type":"address","indexed":true,"internalType":"address"}],"anonymous":false},{"type":"event","name":"Transfer","inputs":[{"name":"from","type":"address","indexed":true,"internalType":"address"},{"name":"to","type":"address","indexed":true,"internalType":"address"},{"name":"tokenId","type":"uint256","indexed":true,"internalType":"uint256"}],"anonymous":false}],"bytecode":{"object":"0x608060405234801561001057600080fd5b50604080518082018252600c81526b506861726d6156657269667960a01b6020918201528151808301835260048152634452554760e01b910152600180546001600160a01b03191633908117909155905181906000907f8be0079c531659141344cd1fd0a4f28419497f9722a3daafe3b4186f6b6457e0908290a350610fc38061009b6000396000f3fe608060405234801561001057600080fd5b506004361061007d5760003560e01c8063b32c4d8d1161005b578063b32c4d8d146100db578063d851991d146100ee578063f2fde38b1461010f578063f577a5001461012257600080fd5b80638da5cb5b146100825780639d47dcc0146100a2578063a6e162b4146100c6575b600080fd5b6001546040516001600160a01b0390911681526020015b60405180910390f35b6100b56100b0366004610b7b565b610145565b604051610099959493929190610bda565b6100d96100d4366004610b7b565b6103ab565b005b6100b56100e9366004610b7b565b61044f565b6101016100fc366004610cd1565b610618565b604051908152602001610099565b6100d961011d366004610d63565b610741565b610135610130366004610b7b565b61082c565b6040519015158152602001610099565b606080600081818061016c876000908152602081905260409020546001600160a01b031690565b6001600160a01b03160361019b5760405162461bcd60e51b815260040161019290610d8c565b60405180910390fd5b600086815260036020526040808220815160a081019092528054829082906101c290610dba565b80601f01602080910402602001604051908101604052809291908181526020018280546101ee90610dba565b801561023b5780601f106102105761010080835404028352916020019161023b565b820191906000526020600020905b81548152906001019060200180831161021e57829003601f168201915b5050505050815260200160018201805461025490610dba565b80601f016020809104026020016040519081016040528092919081815260200182805461028090610dba565b80156102cd5780601f106102a2576101008083540402835291602001916102cd565b820191906000526020600020905b8154815290600101906020018083116102b057829003601f168201915b50505050508152602001600282015481526020016003820180546102f090610dba565b80601f016020809104026020016040519081016040528092919081815260200182805461031c90610dba565b80156103695780601f1061033e57610100808354040283529160200191610369565b820191906000526020600020905b81548152906001019060200180831161034c57829003601f168201915b50505091835250506004919091015460ff16151560209182015281519082015160408301516060840151608090940151929b919a509850919650945092505050565b6001546001600160a01b031633146103d55760405162461bcd60e51b815260040161019290610df4565b6000818152602081905260409020546001600160a01b03166104095760405162461bcd60e51b815260040161019290610d8c565b600081815260036020526040808220600401805460ff191660011790555182917fed33918a1e705e34d322aa755e6bf0a22caf4a18cf3b611323f6addbf3ed0de591a250565b60036020526000908152604090208054819061046a90610dba565b80601f016020809104026020016040519081016040528092919081815260200182805461049690610dba565b80156104e35780601f106104b8576101008083540402835291602001916104e3565b820191906000526020600020905b8154815290600101906020018083116104c657829003601f168201915b5050505050908060010180546104f890610dba565b80601f016020809104026020016040519081016040528092919081815260200182805461052490610dba565b80156105715780601f1061054657610100808354040283529160200191610571565b820191906000526020600020905b81548152906001019060200180831161055457829003601f168201915b50505050509080600201549080600301805461058c90610dba565b80601f01602080910402602001604051908101604052809291908181526020018280546105b890610dba565b80156106055780601f106105da57610100808354040283529160200191610605565b820191906000526020600020905b8154815290600101906020018083116105e857829003601f168201915b5050506004909301549192505060ff1685565b6001546000906001600160a01b031633146106455760405162461bcd60e51b815260040161019290610df4565b6002805490600061065583610e29565b90915550506002546106673382610a67565b6040805160a081018252878152602080820188905281830187905260608201869052600060808301819052848152600390915291909120815181906106ac9082610e9f565b50602082015160018201906106c19082610e9f565b5060408201516002820155606082015160038201906106e09082610e9f565b50608091909101516004909101805460ff191691151591909117905560405181907f9326299d4081d2f110b96500a786fab99821be91a81745b948289673977fedcc906107309089908990610f5f565b60405180910390a295945050505050565b6001546001600160a01b0316331461076b5760405162461bcd60e51b815260040161019290610df4565b6001600160a01b0381166107d05760405162461bcd60e51b815260206004820152602660248201527f4f776e61626c653a206e6577206f776e657220697320746865207a65726f206160448201526564647265737360d01b6064820152608401610192565b6001546040516001600160a01b038084169216907f8be0079c531659141344cd1fd0a4f28419497f9722a3daafe3b4186f6b6457e090600090a3600180546001600160a01b0319166001600160a01b0392909216919091179055565b6000818152602081905260408120546001600160a01b03166108605760405162461bcd60e51b815260040161019290610d8c565b600082815260036020526040808220815160a0810190925280548290829061088790610dba565b80601f01602080910402602001604051908101604052809291908181526020018280546108b390610dba565b80156109005780601f106108d557610100808354040283529160200191610900565b820191906000526020600020905b8154815290600101906020018083116108e357829003601f168201915b5050505050815260200160018201805461091990610dba565b80601f016020809104026020016040519081016040528092919081815260200182805461094590610dba565b80156109925780601f1061096757610100808354040283529160200191610992565b820191906000526020600020905b81548152906001019060200180831161097557829003601f168201915b50505050508152602001600282015481526020016003820180546109b590610dba565b80601f01602080910402602001604051908101604052809291908181526020018280546109e190610dba565b8015610a2e5780601f10610a0357610100808354040283529160200191610a2e565b820191906000526020600020905b815481529060010190602001808311610a1157829003601f168201915b50505091835250506004919091015460ff1615156020909101526080810151909150158015610a605750806040015142105b9392505050565b6001600160a01b038216610abd5760405162461bcd60e51b815260206004820181905260248201527f4552433732313a206d696e7420746f20746865207a65726f20616464726573736044820152606401610192565b6000818152602081905260409020546001600160a01b031615610b225760405162461bcd60e51b815260206004820152601c60248201527f4552433732313a20746f6b656e20616c7265616479206d696e746564000000006044820152606401610192565b60008181526020819052604080822080546001600160a01b0319166001600160a01b03861690811790915590518392907fddf252ad1be2c89b69c2b068fc378daa952ba7f163c4a11628f55a4df523b3ef908290a45050565b600060208284031215610b8d57600080fd5b5035919050565b6000815180845260005b81811015610bba57602081850181015186830182015201610b9e565b506000602082860101526020601f19601f83011685010191505092915050565b60a081526000610bed60a0830188610b94565b8281036020840152610bff8188610b94565b90508560408401528281036060840152610c198186610b94565b91505082151560808301529695505050505050565b634e487b7160e01b600052604160045260246000fd5b600082601f830112610c5557600080fd5b813567ffffffffffffffff80821115610c7057610c70610c2e565b604051601f8301601f19908116603f01168101908282118183101715610c9857610c98610c2e565b81604052838152866020858801011115610cb157600080fd5b836020870160208301376000602085830101528094505050505092915050565b60008060008060808587031215610ce757600080fd5b843567ffffffffffffffff80821115610cff57600080fd5b610d0b88838901610c44565b95506020870135915080821115610d2157600080fd5b610d2d88838901610c44565b9450604087013593506060870135915080821115610d4a57600080fd5b50610d5787828801610c44565b91505092959194509250565b600060208284031215610d7557600080fd5b81356001600160a01b0381168114610a6057600080fd5b602080825260149082015273151bdad95b88191bd95cc81b9bdd08195e1a5cdd60621b604082015260600190565b600181811c90821680610dce57607f821691505b602082108103610dee57634e487b7160e01b600052602260045260246000fd5b50919050565b6020808252818101527f4f776e61626c653a2063616c6c6572206973206e6f7420746865206f776e6572604082015260600190565b600060018201610e4957634e487b7160e01b600052601160045260246000fd5b5060010190565b601f821115610e9a57600081815260208120601f850160051c81016020861015610e775750805b601f850160051c820191505b81811015610e9657828155600101610e83565b5050505b505050565b815167ffffffffffffffff811115610eb957610eb9610c2e565b610ecd81610ec78454610dba565b84610e50565b602080601f831160018114610f025760008415610eea5750858301515b600019600386901b1c1916600185901b178555610e96565b600085815260208120601f198616915b82811015610f3157888601518255948401946001909101908401610f12565b5085821015610f4f5787850151600019600388901b60f8161c191681555b5050505050600190811b01905550565b604081526000610f726040830185610b94565b8281036020840152610f848185610b94565b9594505050505056fea264697066735822122000bd1e342527df2bca6b567d1bb3fe36519b58ee1ea7d9b2fb399b394d66341364736f6c63430008130033","linkReferences":{}},"methodIdentifiers":{"batches(uint256)":"b32c4d8d","getBatchDetails(uint256)":"9d47dcc0","isValid(uint256)":"f577a500","mintBatch(string,string,uint256,string)":"d851991d","owner()":"8da5cb5b","recallBatch(uint256)":"a6e162b4","transferOwnership(address)":"f2fde38b"},"id":21}